:020000040000FA
:020000000528D1
:040002000034003492
:06000A000313831607102A
:100010008710071188018312FF30880083120313B1
:1000200007148714071539200130A0000530A100FE
:10003000DC30A2000630A6000230A7000130A80084
:1000400020280330AA0008000130AA020800820715
:10005000FF34FB34FD34FE348207C034F934A43459
:10006000B034993492348234F83480349834823401
:10007000FF3421202A08272087000A30A000823080
:10008000A100FF30A200FE30AC000730AB002C080E
:1000900088005C200314AC0DAB0B47280A30A0008D
:1000A0008230A100FF30A20088015C2088095C201A
:1000B000AA0B3A28212008002008A3002108A40048
:1000C0002208A500A50B6228A40B6028A30B5E28BC
:0200D000080026
:02400E00F12F90
:00000001FF
