:020000040000FA
:020000000528D1
:040002000034003492
:06000A000313831607102A
:100010008710071188018312FF30880083120313B1
:100020000714871407153A200130A0000530A100FD
:10003000DC30A2000130A6000230A7000630A80084
:10004000822020280330AA0008000130AA020800FC
:100050008207FF34FB34FD34FE348207C034F934A8
:10006000A434B034993492348234F83480349834DF
:100070008234FF3422202A08282087000330A00081
:100080008230A100FF30A200FE30AC000730AB0090
:100090002C0888005D200314AC0DAB0B48281F30E2
:1000A000A0009030A1009430A20088015D20880952
:1000B0005D20AA0B3B28222008002008A30021086D
:1000C000A4002208A500A50B6328A40B6128A30B9C
:1000D0005F28080028082D2088002A08282087008B
:1000E0002520080027082D2088002A0828208700BE
:1000F0002520080026082D2088002A0828208700AF
:10010000252008000130A0000530A100DC30A2004D
:100110005D202A08033A03196A202A08023A0319C3
:0E01200072202A08013A03197A2022200800D2
:02400E00F12F90
:00000001FF
